{
  "contractName": "ThesisContract",
  "abi": [
    {
      "inputs": [],
      "stateMutability": "nonpayable",
      "type": "constructor"
    },
    {
      "inputs": [
        {
          "internalType": "address",
          "name": "",
          "type": "address"
        }
      ],
      "name": "myRoom",
      "outputs": [
        {
          "internalType": "int256",
          "name": "id",
          "type": "int256"
        },
        {
          "internalType": "enum ThesisContract.Statuses",
          "name": "currentStatus",
          "type": "uint8"
        }
      ],
      "stateMutability": "view",
      "type": "function",
      "constant": true
    },
    {
      "inputs": [],
      "name": "owner",
      "outputs": [
        {
          "internalType": "address payable",
          "name": "",
          "type": "address"
        }
      ],
      "stateMutability": "view",
      "type": "function",
      "constant": true
    },
    {
      "inputs": [
        {
          "internalType": "uint256",
          "name": "_id",
          "type": "uint256"
        }
      ],
      "name": "book",
      "outputs": [],
      "stateMutability": "payable",
      "type": "function",
      "payable": true
    }
  ],
  "bytecode": "0x608060405234801561001057600080fd5b5033600260006101000a81548173ffffffffffffffffffffffffffffffffffffffff021916908373ffffffffffffffffffffffffffffffffffffffff16021790555060016040518060400160405280600081526020016000600181111561007a57610079610297565b5b81525090806001815401808255809150506001900390600052602060002090600202016000909190919091506000820151816000015560208201518160010160006101000a81548160ff021916908360018111156100db576100da610297565b5b0217905550505060016040518060400160405280600181526020016000600181111561010a57610109610297565b5b81525090806001815401808255809150506001900390600052602060002090600202016000909190919091506000820151816000015560208201518160010160006101000a81548160ff0219169083600181111561016b5761016a610297565b5b0217905550505060016040518060400160405280600281526020016000600181111561019a57610199610297565b5b81525090806001815401808255809150506001900390600052602060002090600202016000909190919091506000820151816000015560208201518160010160006101000a81548160ff021916908360018111156101fb576101fa610297565b5b0217905550505060016040518060400160405280600381526020016000600181111561022a57610229610297565b5b81525090806001815401808255809150506001900390600052602060002090600202016000909190919091506000820151816000015560208201518160010160006101000a81548160ff0219169083600181111561028b5761028a610297565b5b021790555050506102c6565b7f4e487b7100000000000000000000000000000000000000000000000000000000600052602160045260246000fd5b610696806102d56000396000f3fe6080604052600436106100345760003560e01c80631116fd04146100395780637f90254f146100555780638da5cb5b14610093575b600080fd5b610053600480360381019061004e919061039b565b6100be565b005b34801561006157600080fd5b5061007c60048036038101906100779190610426565b610309565b60405161008a9291906104e3565b60405180910390f35b34801561009f57600080fd5b506100a861033a565b6040516100b5919061052d565b60405180910390f35b80600060018111156100d3576100d261046c565b5b600182815481106100e7576100e6610548565b5b906000526020600020906002020160010160009054906101000a900460ff1660018111156101185761011761046c565b5b14610158576040517f08c379a000000000000000000000000000000000000000000000000000000000815260040161014f906105d4565b60405180910390fd5b671bc16d674ec80000803410156101a4576040517f08c379a000000000000000000000000000000000000000000000000000000000815260040161019b90610640565b60405180910390fd5b60018084815481106101b9576101b8610548565b5b906000526020600020906002020160010160006101000a81548160ff021916908360018111156101ec576101eb61046c565b5b0217905550600260009054906101000a900473ffffffffffffffffffffffffffffffffffffffff1673ffffffffffffffffffffffffffffffffffffffff166108fc349081150290604051600060405180830381858888f19350505050158015610259573d6000803e3d6000fd5b506001838154811061026e5761026d610548565b5b90600052602060002090600202016000803373ffffffffffffffffffffffffffffffffffffffff1673ffffffffffffffffffffffffffffffffffffffff168152602001908152602001600020600082015481600001556001820160009054906101000a900460ff168160010160006101000a81548160ff021916908360018111156102fc576102fb61046c565b5b0217905550905050505050565b60006020528060005260406000206000915090508060000154908060010160009054906101000a900460ff16905082565b600260009054906101000a900473ffffffffffffffffffffffffffffffffffffffff1681565b600080fd5b6000819050919050565b61037881610365565b811461038357600080fd5b50565b6000813590506103958161036f565b92915050565b6000602082840312156103b1576103b0610360565b5b60006103bf84828501610386565b91505092915050565b600073ffffffffffffffffffffffffffffffffffffffff82169050919050565b60006103f3826103c8565b9050919050565b610403816103e8565b811461040e57600080fd5b50565b600081359050610420816103fa565b92915050565b60006020828403121561043c5761043b610360565b5b600061044a84828501610411565b91505092915050565b6000819050919050565b61046681610453565b82525050565b7f4e487b7100000000000000000000000000000000000000000000000000000000600052602160045260246000fd5b600281106104ac576104ab61046c565b5b50565b60008190506104bd8261049b565b919050565b60006104cd826104af565b9050919050565b6104dd816104c2565b82525050565b60006040820190506104f8600083018561045d565b61050560208301846104d4565b9392505050565b6000610517826103c8565b9050919050565b6105278161050c565b82525050565b6000602082019050610542600083018461051e565b92915050565b7f4e487b7100000000000000000000000000000000000000000000000000000000600052603260045260246000fd5b600082825260208201905092915050565b7f43757272656e746c79206f636375706965642e00000000000000000000000000600082015250565b60006105be601383610577565b91506105c982610588565b602082019050919050565b600060208201905081810360008301526105ed816105b1565b9050919050565b7f4e6f7420656e6f7567682045746865722070726f76696465642e000000000000600082015250565b600061062a601a83610577565b9150610635826105f4565b602082019050919050565b600060208201905081810360008301526106598161061d565b905091905056fea2646970667358221220c20d922a8d51c012d4b70c28c5b527307ea6b61d859b101a2a7416e22c36804464736f6c63430008130033",
  "immutableReferences": {},
  "source": "// SPDX-License-Identifier: MIT\r\npragma solidity ^0.8.0;\r\n\r\ncontract ThesisContract {\r\n\r\n    //Mapping of an address with a Room\r\n    mapping(address => Room) public myRoom;\r\n\r\n    //Enumeration for statuses that can be either Vacant or Occupied\r\n    enum Statuses {\r\n        Vacant,\r\n        Occupied\r\n    }\r\n\r\n    //Structure Room that has an id and a status consisting of the enum\r\n    struct Room {\r\n        int id;\r\n        Statuses currentStatus;\r\n    }\r\n\r\n    //An array of the struct Type \"Room\"\r\n    Room[] allRooms;\r\n\r\n    //An address called owner that is payable, which means it can receive ETH\r\n    address payable public owner;\r\n\r\n    constructor() {\r\n        //Set owner to the creater of the contract\r\n        owner = payable(msg.sender);\r\n        //You can add Rooms to the allRooms array with the \"push()\" method. \r\n        //It is added at the end of the existing array\r\n        allRooms.push(Room(0, Statuses.Vacant));\r\n        allRooms.push(Room(1, Statuses.Vacant));\r\n        allRooms.push(Room(2, Statuses.Vacant));\r\n        allRooms.push(Room(3, Statuses.Vacant));\r\n    }\r\n\r\n    //modifiers can be created and added to functions to make sure \r\n    //a certain condition is met\r\n    modifier onlyWhileVacant(uint id) {\r\n        require(\r\n            allRooms[id].currentStatus == Statuses.Vacant,\r\n            \"Currently occupied.\"\r\n        );\r\n        //The placeholder statement(\"_\") is used to denote where the body \r\n        //of the function being modified should be inserted\r\n        _;\r\n    }\r\n    modifier costs(uint256 _amount) {\r\n        require(msg.value >= _amount, \"Not enough Ether provided.\");\r\n        _;\r\n    }\r\n\r\n    //The 2 previously defined modifiers are applied, Multiple modifiers\r\n    // are applied to a function by specifying them in a whitespace-separated\r\n    // list and are evaluated in the order presented\r\n    function book(uint _id) public payable onlyWhileVacant(_id) costs(2 ether) {\r\n        allRooms[_id].currentStatus = Statuses.Occupied;\r\n        owner.transfer(msg.value);\r\n        myRoom[msg.sender] = allRooms[_id];\r\n    }\r\n}\r\n",
  "sourcePath": "C:\\HaagaHelia\\Bachelor Thesis\\Thesis\\contracts\\ThesisContract.sol",
  "compiler": {
    "name": "solc",
    "version": "0.8.19+commit.7dd6d404.Emscripten.clang"
  },
  "schemaVersion": "3.4.13",
  "updatedAt": "2023-05-04T13:48:28.836Z",
  "networkType": "ethereum",
  "devdoc": {
    "kind": "dev",
    "methods": {},
    "version": 1
  },
  "userdoc": {
    "kind": "user",
    "methods": {},
    "version": 1
  }
}