{
  "contractName": "ThesisContract",
  "abi": [
    {
      "inputs": [],
      "stateMutability": "nonpayable",
      "type": "constructor"
    },
    {
      "inputs": [
        {
          "internalType": "uint256",
          "name": "",
          "type": "uint256"
        }
      ],
      "name": "allRooms",
      "outputs": [
        {
          "internalType": "int256",
          "name": "id",
          "type": "int256"
        },
        {
          "internalType": "enum ThesisContract.Statuses",
          "name": "currentStatus",
          "type": "uint8"
        }
      ],
      "stateMutability": "view",
      "type": "function"
    },
    {
      "inputs": [
        {
          "internalType": "address",
          "name": "",
          "type": "address"
        }
      ],
      "name": "myRoom",
      "outputs": [
        {
          "internalType": "int256",
          "name": "id",
          "type": "int256"
        },
        {
          "internalType": "enum ThesisContract.Statuses",
          "name": "currentStatus",
          "type": "uint8"
        }
      ],
      "stateMutability": "view",
      "type": "function"
    },
    {
      "inputs": [],
      "name": "owner",
      "outputs": [
        {
          "internalType": "address payable",
          "name": "",
          "type": "address"
        }
      ],
      "stateMutability": "view",
      "type": "function"
    },
    {
      "inputs": [
        {
          "internalType": "uint256",
          "name": "_id",
          "type": "uint256"
        }
      ],
      "name": "book",
      "outputs": [],
      "stateMutability": "payable",
      "type": "function"
    }
  ],
  "bytecode": "0x608060405234801561000f575f80fd5b503360025f6101000a81548173ffffffffffffffffffffffffffffffffffffffff021916908373ffffffffffffffffffffffffffffffffffffffff160217905550600160405180604001604052805f81526020015f600181111561007657610075610278565b5b815250908060018154018082558091505060019003905f5260205f2090600202015f909190919091505f820151815f01556020820151816001015f6101000a81548160ff021916908360018111156100d1576100d0610278565b5b0217905550505060016040518060400160405280600181526020015f60018111156100ff576100fe610278565b5b815250908060018154018082558091505060019003905f5260205f2090600202015f909190919091505f820151815f01556020820151816001015f6101000a81548160ff0219169083600181111561015a57610159610278565b5b0217905550505060016040518060400160405280600281526020015f600181111561018857610187610278565b5b815250908060018154018082558091505060019003905f5260205f2090600202015f909190919091505f820151815f01556020820151816001015f6101000a81548160ff021916908360018111156101e3576101e2610278565b5b0217905550505060016040518060400160405280600381526020015f600181111561021157610210610278565b5b815250908060018154018082558091505060019003905f5260205f2090600202015f909190919091505f820151815f01556020820151816001015f6101000a81548160ff0219169083600181111561026c5761026b610278565b5b021790555050506102a5565b7f4e487b71000000000000000000000000000000000000000000000000000000005f52602160045260245ffd5b6106da806102b25f395ff3fe60806040526004361061003e575f3560e01c80631116fd041461004257806316778a311461005e5780637f90254f1461009b5780638da5cb5b146100d8575b5f80fd5b61005c600480360381019061005791906103fc565b610102565b005b348015610069575f80fd5b50610084600480360381019061007f91906103fc565b61033a565b6040516100929291906104b2565b60405180910390f35b3480156100a6575f80fd5b506100c160048036038101906100bc9190610533565b610375565b6040516100cf9291906104b2565b60405180910390f35b3480156100e3575f80fd5b506100ec6103a0565b6040516100f9919061057e565b60405180910390f35b805f60018111156101165761011561043f565b5b6001828154811061012a57610129610597565b5b905f5260205f2090600202016001015f9054906101000a900460ff1660018111156101585761015761043f565b5b14610198576040517f08c379a000000000000000000000000000000000000000000000000000000000815260040161018f9061061e565b60405180910390fd5b671bc16d674ec80000803410156101e4576040517f08c379a00000000000000000000000000000000000000000000000000000000081526004016101db90610686565b60405180910390fd5b60018084815481106101f9576101f8610597565b5b905f5260205f2090600202016001015f6101000a81548160ff021916908360018111156102295761022861043f565b5b021790555060025f9054906101000a900473ffffffffffffffffffffffffffffffffffffffff1673ffffffffffffffffffffffffffffffffffffffff166108fc3490811502906040515f60405180830381858888f19350505050158015610292573d5f803e3d5ffd5b50600183815481106102a7576102a6610597565b5b905f5260205f2090600202015f803373ffffffffffffffffffffffffffffffffffffffff1673ffffffffffffffffffffffffffffffffffffffff1681526020019081526020015f205f820154815f0155600182015f9054906101000a900460ff16816001015f6101000a81548160ff0219169083600181111561032d5761032c61043f565b5b0217905550905050505050565b60018181548110610349575f80fd5b905f5260205f2090600202015f91509050805f015490806001015f9054906101000a900460ff16905082565b5f602052805f5260405f205f91509050805f015490806001015f9054906101000a900460ff16905082565b60025f9054906101000a900473ffffffffffffffffffffffffffffffffffffffff1681565b5f80fd5b5f819050919050565b6103db816103c9565b81146103e5575f80fd5b50565b5f813590506103f6816103d2565b92915050565b5f60208284031215610411576104106103c5565b5b5f61041e848285016103e8565b91505092915050565b5f819050919050565b61043981610427565b82525050565b7f4e487b71000000000000000000000000000000000000000000000000000000005f52602160045260245ffd5b6002811061047d5761047c61043f565b5b50565b5f81905061048d8261046c565b919050565b5f61049c82610480565b9050919050565b6104ac81610492565b82525050565b5f6040820190506104c55f830185610430565b6104d260208301846104a3565b9392505050565b5f73ffffffffffffffffffffffffffffffffffffffff82169050919050565b5f610502826104d9565b9050919050565b610512816104f8565b811461051c575f80fd5b50565b5f8135905061052d81610509565b92915050565b5f60208284031215610548576105476103c5565b5b5f6105558482850161051f565b91505092915050565b5f610568826104d9565b9050919050565b6105788161055e565b82525050565b5f6020820190506105915f83018461056f565b92915050565b7f4e487b71000000000000000000000000000000000000000000000000000000005f52603260045260245ffd5b5f82825260208201905092915050565b7f43757272656e746c79206f636375706965642e000000000000000000000000005f82015250565b5f6106086013836105c4565b9150610613826105d4565b602082019050919050565b5f6020820190508181035f830152610635816105fc565b9050919050565b7f4e6f7420656e6f7567682045746865722070726f76696465642e0000000000005f82015250565b5f610670601a836105c4565b915061067b8261063c565b602082019050919050565b5f6020820190508181035f83015261069d81610664565b905091905056fea26469706673582212202deac94cb244ac952ec54c66cf3ddabc427d9fd78a464c51cbd3dd9a6e44369264736f6c63430008140033",
  "immutableReferences": {},
  "source": "// SPDX-License-Identifier: MIT\r\npragma solidity ^0.8.0;\r\n\r\ncontract ThesisContract {\r\n\r\n    //Mapping of an address with a Room\r\n    mapping(address => Room) public myRoom;\r\n\r\n    //Enumeration for statuses that can be either Vacant or Occupied\r\n    enum Statuses {\r\n        Vacant,\r\n        Occupied\r\n    }\r\n\r\n    //Structure Room that has an id and a status consisting of the enum\r\n    struct Room {\r\n        int id;\r\n        Statuses currentStatus;\r\n    }\r\n\r\n    //An array of the struct Type \"Room\"\r\n    Room[] public allRooms;\r\n\r\n    //An address called owner that is payable, which means it can receive ETH\r\n    address payable public owner;\r\n\r\n    constructor() {\r\n        //Set owner to the creater of the contract\r\n        owner = payable(msg.sender);\r\n        //You can add Rooms to the allRooms array with the \"push()\" method. \r\n        //It is added at the end of the existing array\r\n        allRooms.push(Room(0, Statuses.Vacant));\r\n        allRooms.push(Room(1, Statuses.Vacant));\r\n        allRooms.push(Room(2, Statuses.Vacant));\r\n        allRooms.push(Room(3, Statuses.Vacant));\r\n    }\r\n\r\n    //modifiers can be created and added to functions to make sure \r\n    //a certain condition is met\r\n    modifier onlyWhileVacant(uint id) {\r\n        require(\r\n            allRooms[id].currentStatus == Statuses.Vacant,\r\n            \"Currently occupied.\"\r\n        );\r\n        //The placeholder statement(\"_\") is used to denote where the body \r\n        //of the function being modified should be inserted\r\n        _;\r\n    }\r\n    modifier costs(uint256 _amount) {\r\n        require(msg.value >= _amount, \"Not enough Ether provided.\");\r\n        _;\r\n    }\r\n\r\n    //The 2 previously defined modifiers are applied, Multiple modifiers\r\n    // are applied to a function by specifying them in a whitespace-separated\r\n    // list and are evaluated in the order presented\r\n    function book(uint _id) public payable onlyWhileVacant(_id) costs(2 ether) {\r\n        allRooms[_id].currentStatus = Statuses.Occupied;\r\n        owner.transfer(msg.value);\r\n        myRoom[msg.sender] = allRooms[_id];\r\n    }\r\n}\r\n",
  "sourcePath": "C:\\HaagaHelia\\Bachelor Thesis\\Thesis\\contracts\\ThesisContract.sol",
  "compiler": {
    "name": "solc",
    "version": "0.8.20+commit.a1b79de6.Emscripten.clang"
  },
  "schemaVersion": "3.4.13",
  "updatedAt": "2023-05-17T11:45:56.013Z",
  "devdoc": {
    "kind": "dev",
    "methods": {},
    "version": 1
  },
  "userdoc": {
    "kind": "user",
    "methods": {},
    "version": 1
  }
}